{"abi":[{"type":"function","name":"clearDay","inputs":[],"outputs":[],"stateMutability":"nonpayable"},{"type":"function","name":"getStreak","inputs":[{"name":"player","type":"address","internalType":"address"}],"outputs":[{"name":"","type":"uint256","internalType":"uint256"},{"name":"","type":"uint256","internalType":"uint256"}],"stateMutability":"view"},{"type":"function","name":"lastClearDay","inputs":[{"name":"","type":"address","internalType":"address"}],"outputs":[{"name":"","type":"uint256","internalType":"uint256"}],"stateMutability":"view"},{"type":"function","name":"streak","inputs":[{"name":"","type":"address","internalType":"address"}],"outputs":[{"name":"","type":"uint256","internalType":"uint256"}],"stateMutability":"view"},{"type":"event","name":"DayCleared","inputs":[{"name":"player","type":"address","indexed":true,"internalType":"address"},{"name":"day","type":"uint256","indexed":false,"internalType":"uint256"},{"name":"newStreak","type":"uint256","indexed":false,"internalType":"uint256"}],"anonymous":false}],"bytecode":{"object":"0x6080604052348015600e575f5ffd5b506105b78061001c5f395ff3fe608060405234801561000f575f5ffd5b506004361061004a575f3560e01c80630f2dd9c91461004e57806356ef245e146100585780635eeadb0d146100885780636a2a6518146100b9575b5f5ffd5b6100566100e9565b005b610072600480360381019061006d91906103c9565b6102bc565b60405161007f919061040c565b60405180910390f35b6100a2600480360381019061009d91906103c9565b6102d0565b6040516100b0929190610425565b60405180910390f35b6100d360048036038101906100ce91906103c9565b610356565b6040516100e0919061040c565b60405180910390f35b5f62015180426100f991906104a6565b90505f5f5f3373ffffffffffffffffffffffffffffffffffffffff1673ffffffffffffffffffffffffffffffffffffffff1681526020019081526020015f2054905081810361017d576040517f08c379a000000000000000000000000000000000000000000000000000000000815260040161017490610530565b60405180910390fd5b5f8260018361018c919061054e565b146101985760016101e2565b6001805f3373ffffffffffffffffffffffffffffffffffffffff1673ffffffffffffffffffffffffffffffffffffffff1681526020019081526020015f20546101e1919061054e565b5b90508060015f3373ffffffffffffffffffffffffffffffffffffffff1673ffffffffffffffffffffffffffffffffffffffff1681526020019081526020015f2081905550825f5f3373ffffffffffffffffffffffffffffffffffffffff1673ffffffffffffffffffffffffffffffffffffffff1681526020019081526020015f20819055503373ffffffffffffffffffffffffffffffffffffffff167f1da42304380bfc8fe8d7f9e68d297f43498826372f04625c9bbb432edb9c896b84836040516102af929190610425565b60405180910390a2505050565b5f602052805f5260405f205f915090505481565b5f5f60015f8473ffffffffffffffffffffffffffffffffffffffff1673ffffffffffffffffffffffffffffffffffffffff1681526020019081526020015f20545f5f8573ffffffffffffffffffffffffffffffffffffffff1673ffffffffffffffffffffffffffffffffffffffff1681526020019081526020015f205491509150915091565b6001602052805f5260405f205f915090505481565b5f5ffd5b5f73ffffffffffffffffffffffffffffffffffffffff82169050919050565b5f6103988261036f565b9050919050565b6103a88161038e565b81146103b2575f5ffd5b50565b5f813590506103c38161039f565b92915050565b5f602082840312156103de576103dd61036b565b5b5f6103eb848285016103b5565b91505092915050565b5f819050919050565b610406816103f4565b82525050565b5f60208201905061041f5f8301846103fd565b92915050565b5f6040820190506104385f8301856103fd565b61044560208301846103fd565b9392505050565b7f4e487b71000000000000000000000000000000000000000000000000000000005f52601260045260245ffd5b7f4e487b71000000000000000000000000000000000000000000000000000000005f52601160045260245ffd5b5f6104b0826103f4565b91506104bb836103f4565b9250826104cb576104ca61044c565b5b828204905092915050565b5f82825260208201905092915050565b7f416c726561647920636c656172656420746f64617900000000000000000000005f82015250565b5f61051a6015836104d6565b9150610525826104e6565b602082019050919050565b5f6020820190508181035f8301526105478161050e565b9050919050565b5f610558826103f4565b9150610563836103f4565b925082820190508082111561057b5761057a610479565b5b9291505056fea2646970667358221220adaf19ab1a975515d205c4e04c9d9e46b679e7366d0522bc845b3ae3aff35f2564736f6c634300081c0033","linkReferences":{}},"methodIdentifiers":{"clearDay()":"0f2dd9c9","getStreak(address)":"5eeadb0d","lastClearDay(address)":"56ef245e","streak(address)":"6a2a6518"},"id":21}