{"abi":[{"type":"function","name":"clearDay","inputs":[],"outputs":[],"stateMutability":"nonpayable"},{"type":"function","name":"getClears","inputs":[{"name":"player","type":"address","internalType":"address"}],"outputs":[{"name":"","type":"uint256","internalType":"uint256"},{"name":"","type":"uint256","internalType":"uint256"}],"stateMutability":"view"},{"type":"function","name":"lastClearDay","inputs":[{"name":"","type":"address","internalType":"address"}],"outputs":[{"name":"","type":"uint256","internalType":"uint256"}],"stateMutability":"view"},{"type":"function","name":"totalClears","inputs":[{"name":"","type":"address","internalType":"address"}],"outputs":[{"name":"","type":"uint256","internalType":"uint256"}],"stateMutability":"view"},{"type":"event","name":"DayCleared","inputs":[{"name":"player","type":"address","indexed":true,"internalType":"address"},{"name":"day","type":"uint256","indexed":false,"internalType":"uint256"},{"name":"total","type":"uint256","indexed":false,"internalType":"uint256"}],"anonymous":false}],"bytecode":{"object":"0x6080604052348015600e575f5ffd5b506105988061001c5f395ff3fe608060405234801561000f575f5ffd5b506004361061004a575f3560e01c80630f2dd9c91461004e57806325f726701461005857806356ef245e14610088578063f3be441f146100b8575b5f5ffd5b6100566100e9565b005b610072600480360381019061006d91906103aa565b61029d565b60405161007f91906103ed565b60405180910390f35b6100a2600480360381019061009d91906103aa565b6102b2565b6040516100af91906103ed565b60405180910390f35b6100d260048036038101906100cd91906103aa565b6102c6565b6040516100e0929190610406565b60405180910390f35b5f62015180426100f99190610487565b9050805f5f3373ffffffffffffffffffffffffffffffffffffffff1673ffffffffffffffffffffffffffffffffffffffff1681526020019081526020015f205403610179576040517f08c379a000000000000000000000000000000000000000000000000000000000815260040161017090610511565b60405180910390fd5b6001805f3373ffffffffffffffffffffffffffffffffffffffff1673ffffffffffffffffffffffffffffffffffffffff1681526020019081526020015f205f8282546101c5919061052f565b92505081905550805f5f3373ffffffffffffffffffffffffffffffffffffffff1673ffffffffffffffffffffffffffffffffffffffff1681526020019081526020015f20819055503373ffffffffffffffffffffffffffffffffffffffff167f1da42304380bfc8fe8d7f9e68d297f43498826372f04625c9bbb432edb9c896b8260015f3373ffffffffffffffffffffffffffffffffffffffff1673ffffffffffffffffffffffffffffffffffffffff1681526020019081526020015f2054604051610292929190610406565b60405180910390a250565b6001602052805f5260405f205f915090505481565b5f602052805f5260405f205f915090505481565b5f5f60015f8473ffffffffffffffffffffffffffffffffffffffff1673ffffffffffffffffffffffffffffffffffffffff1681526020019081526020015f20545f5f8573ffffffffffffffffffffffffffffffffffffffff1673ffffffffffffffffffffffffffffffffffffffff1681526020019081526020015f205491509150915091565b5f5ffd5b5f73ffffffffffffffffffffffffffffffffffffffff82169050919050565b5f61037982610350565b9050919050565b6103898161036f565b8114610393575f5ffd5b50565b5f813590506103a481610380565b92915050565b5f602082840312156103bf576103be61034c565b5b5f6103cc84828501610396565b91505092915050565b5f819050919050565b6103e7816103d5565b82525050565b5f6020820190506104005f8301846103de565b92915050565b5f6040820190506104195f8301856103de565b61042660208301846103de565b9392505050565b7f4e487b71000000000000000000000000000000000000000000000000000000005f52601260045260245ffd5b7f4e487b71000000000000000000000000000000000000000000000000000000005f52601160045260245ffd5b5f610491826103d5565b915061049c836103d5565b9250826104ac576104ab61042d565b5b828204905092915050565b5f82825260208201905092915050565b7f416c726561647920636c656172656420746f64617900000000000000000000005f82015250565b5f6104fb6015836104b7565b9150610506826104c7565b602082019050919050565b5f6020820190508181035f830152610528816104ef565b9050919050565b5f610539826103d5565b9150610544836103d5565b925082820190508082111561055c5761055b61045a565b5b9291505056fea2646970667358221220b358c2869e58290ee662467dc81c788a2e34be89ede28cacd02d23c636be8d3364736f6c634300081c0033","linkReferences":{}},"methodIdentifiers":{"clearDay()":"0f2dd9c9","getClears(address)":"f3be441f","lastClearDay(address)":"56ef245e","totalClears(address)":"25f72670"},"id":16}